:020000040800F2
:1000000000200020890100088D01000891010008EE
:1000100000000000000000000000000000000000E0
:10002000000000000000000000000000AD0100081A
:100030000000000000000000B1010008B501000848
:10004000C1010008C1010008C1010008C101000888
:10005000C1010008C1010008C1010008C101000878
:10006000C1010008E90E0008C1010008C101000833
:10007000C1010008C1010008C1010008C101000858
:10008000D10D0008C101000800000000C1010008F6
:10009000C1010008C1010008C1010008C101000838
:1000A000C1010008C1010008C1010008C101000828
:1000B000C101000800000000C101000800000000AC
:1000C0005FF808F173B500F039FC24482449254C49
:1000D00000231A188A4203D2E55804331560F8E762
:1000E000214B224A0020191D043B934202D2186082
:1000F0000B1CF8E700F026FC684601A900F016FC8E
:100100001B4B1C4D0024ED1AAD101E1CAC4204DA32
:10011000A300F35898470134F8E7174B174D002414
:10012000ED1AAD101E1CAC4204DAA300F358984738
:100130000134F8E70098019900F0F6FE104B114CDD
:10014000051CE41AA4101E1C002C04DD013CA300B5
:10015000F3589847F8E7281C00F0E5FB0000002062
:1001600028000020C43300082C000020700000206C
:10017000EC010008EC010008EC010008EC010008AB
:10018000EC010008EC0100080B48004700B5FEE751
:1001900004207146084202D0EFF3098001E0EFF33A
:1001A00008807146054A104700B5FEE700B5FEE736
:1001B00000B5FEE770470000C5000008A90100086F
:0401C00000B5FEE7A1
:1001C400C43300080000002028000020C4330008C5
:1001D4000000000000000000280000207000002043
:0801E400000000000000000013
:1001F00008B5074B984209D180208000012100F00A
:1002000027FA80208000002100F022FA08BDC046B5
:10021000002401400B688A6810B51A43CB68C46893
:100220001A430B691A434B691A43044B2340134387
:100230000A7952031343C36010BDC04603D2FFFFC7
:100240000023036003718360C360036143617047EF
:1002500000B583680122002900D102221343836084
:1002600000BD836A194381624261704782688023BE
:100270001B06134300B58360F0231B028268013B19
:10028000D20FD207002B01D0002AF7D18368002BB0
:1002900001DB006C00E0002000BD836804221343F2
:1002A0008360704700B50123C268002901D0134361
:1002B00001E09A43131CC36000BDC368022293434C
:1002C000C360C3681943C1607047000000B5CB012B
:1002D00003D58268044B134000E003680B40591EAD
:1002E0008B41D8B200BDC046FFFFFFFE094B30B5C1
:1002F000094C1A6884404D68A2430C6825438C68F9
:100300002543CC68291C21438140081C10431860F8
:1003100030BDC04600740040FE0F000000B5084B21
:100320000122002905D019688240101C084318607A
:1003300005E019688240101C0A1C82431A6000BD47
:100340000074004082B000230193054B0193019B90
:10035000083318180190019B196002B07047C0461D
:10036000007400400268204B00B513400360002376
:10037000036043608360C3601C4B984203D11C4BF5
:100380000F215A682DE01B4B984203D1184BF021E6
:100390005A6826E0184B984204D1154BF022596850
:1003A00012011EE0154B984204D1114BF0225968FE
:1003B000120216E0124B984204D10D4BF0225968FC
:1003C00012030EE00F4B984204D1094BF0225968FA
:1003D000120406E00C4B984205D1054BF0225968F7
:1003E00012050A435A6000BDFEFF000008000240EB
:1003F000000002401C000240300002404400024065
:10040000580002406C0002408000024002680D4B20
:1004100010B51A408C680B6A23430C6923434C695E
:1004200023438C692343CC6923434C6A23438C6A5E
:10043000234313430360CB680C6843604B688460BC
:10044000C36010BD0F80FFFF00B5002903D0036813
:100450000122134302E00268014B1340036000BD18
:10046000FEFF000000B50368002A02D019430160B6
:1004700001E08B43036000BD034B1B681840431E23
:100480009841C0B27047C04600000240014B58601E
:100490007047C04600000240F7B50A680023019289
:1004A0000124019D9C402540A54230D10C79661E57
:1004B000F6B2012E17D8866803270096009A5E00D0
:1004C000B740BA4382604A798768B240161C3E43FF
:1004D00086604668B6B2AE4386808D7946689D4098
:1004E0003543ADB285805D0003260768AE40F64314
:1004F000374007600768AC403C430460C46826404E
:10050000C660CE79C468AE40351C2543C560013352
:10051000102BC5D1F7BD0000044B0122036000235E
:10052000037142718371C3717047C046FFFF0000C1
:1005300040690840431E9841C0B2704781617047CE
:1005400001857047827870B50378002A1DD099081C
:10055000124A0324890089182340C022A340920034
:10056000FF248D58261C9E40B5434678B601344082
:100570009C402B1C23438B5002781F231A400123DD
:1005800093401A1C054B1A6006E01F2213400122FB
:100590009A40131C024AD36770BDC04600E100E0D8
:1005A00004E100E0054B10B5054A5C6822405A6042
:1005B0005A6811430843586010BDC04600100240FD
:1005C000FF7FC2FF064B00B51968002803D08022C8
:1005D00052040A4301E0034A0A401A6000BDC046C3
:1005E00000100240FFFFFFFE034B03215A688A43BD
:1005F000104358607047C04600100240054B00B5DC
:100600005A69002902D01043586101E082435A61BF
:1006100000BDC04600100240054B00B59A69002994
:1006200002D01043986101E082439A6100BDC04648
:1006300000100240054B00B5DA69002902D01043D2
:10064000D86101E08243DA6100BDC046001002407B
:10065000054B00B5DA68002902D01043D86001E0EC
:100660008243DA6000BDC04600100240054B00B571
:100670001A69002902D01043186101E082431A610F
:1006800000BDC0460010024000B54109094A01D131
:10069000136808E0012901D1136A04E0022901D19D
:1006A000536A00E0536B1F221040C340181C012204
:1006B000104000BD0010024008B5314B984207D1F0
:1006C000802000010121FFF7C3FF8020000152E0DC
:1006D0008023DB05984205D10120011CFFF7C6FFEE
:1006E000012024E0274B984205D102200121FFF789
:1006F000BDFF02201BE0244B984205D110200121B0
:10070000FFF7B4FF102012E0204B984205D12020C3
:100710000121FFF7ABFF202009E01D4B98420AD1D1
:10072000802040000121FFF7A1FF80204000002130
:10073000FFF79CFF22E0174B984207D18020400230
:100740000121FFF785FF8020400214E0124B984200
:1007500007D1802080020121FFF77AFF80208002EC
:1007600009E00E4B984209D18020C0020121FFF719
:100770006FFF8020C0020021FFF76AFF08BDC0465E
:10078000002C014000040040001000400014004014
:10079000002000400040014000440140004801406A
:1007A0000368164A30B59BB2904206D08024E40517
:1007B000A04202D0124CA04203D17024A3434C8823
:1007C0002343104CA04203D00F4D0C892B402343F0
:1007D00003804B68C3620B880385904208D00B4BA3
:1007E000984205D00A4B984202D00A4B984201D158
:1007F0008B7A03860123838230BDC046002C0140E2
:100800000004004000100040FFFCFFFF00400140DA
:10081000004401400048014001235B424360002343
:1008200003800381438083727047026800B501230F
:1008300092B2002901D0134301E09A43131C0380B4
:1008400000BD000000B5831D002904D0416C044A9E
:100850000A4392B202E0426C5204520CDA8700BDA5
:100860000080FFFF026A134B30B513400384056A12
:10087000114A4368C4699BB214400A8812021443A7
:100880000E4AA4B22A408D892D032A434D8892B284
:100890002D032A430A4D92B2A84205D1094D2B409F
:1008A0000D8AAD012B439BB283808B6884830364E4
:1008B000028430BDFFEF0000FF8C0000FFDF00006E
:1008C000002C0140FFBFFFFF002303804380838093
:1008D00083608381C381038243827047C36800B50C
:1008E0009BB2002A02D01943818101E08B438381AE
:1008F00000BD00B50269C36800209BB20A4203D064
:100900001940481E8141C8B200BDC94389B2018265
:100910007047436870229BB29343838043689BB2C5
:1009200019438180704708B500F010F80123036077
:10093000014B0B607047C0460000002008B500F076
:1009400013F808BD08B500F08DF808BD00B5BFF379
:100950004F8F034A034BDA60BFF34F8FC046FDE76A
:100960000400FA0500ED00E0364B07B519680122D6
:100970001143196058683449014059601868334977
:1009800001401960186832490140196058683149BE
:1009900001405960D96A0F208143D962186B2E49F2
:1009A00001401963596B80209143002259639A607A
:1009B000009201921968802252020A431A60A02212
:1009C0008002D20119680140019100990131009122
:1009D0000199002902D100999142F3D1196880222E
:1009E00092020A4000D001220192019A012A27D1E5
:1009F0001A4A112111605A685A605A685A60596837
:100A0000174A0A405A605968882252030A435A60BA
:100A10001968802252040A4380211A6089041868E8
:100A2000084A0842FBD05168032081435160516855
:100A30000220014351600C215A680A40082AFBD168
:100A400007BDC046001002400CB8FF08FFFFF6FECD
:100A5000FFFFFBFFFFFFC0FFACFEFFFF00200240D7
:100A6000FF7FC0FF70B5154D0C236A68144C13400E
:100A7000042B01D0082B02D0124B236014E06E68C7
:100A8000C023B6026A68360F5B0202361A4202D1F0
:100A90000D4B5E4307E0E96A0F2319400131094815
:100AA00000F0FEFA464326606B68084A1B061B0FDF
:100AB000D35C2268DA40226070BDC046001002405C
:100AC0001800002000127A0000093D0008000020F4
:100AD00038B5049D1C1C401AEB1A5843511A00F0FB
:100AE0002DFB201838BD80208021000208B5490365
:100AF000FFF758FD0120FFF765FD1920FFF7C4FD42
:100B00000128FAD10220FFF76FFDFFF7ABFF08BD08
:100B100010B5802086B080020121FFF76FFD802094
:100B200080050121FFF786FD302390206A460024CE
:100B3000009369460323C00513715371D471FFF705
:100B4000ABFC0C230293201C022302A90593FFF7A0
:100B5000CDFB201C0121FFF7E1FB02A91020FFF7CC
:100B6000C5FB10200121FFF7D9FB06B010BD000026
:100B7000F0B554489DB0FFF73BFBA02000010121D8
:100B8000FFF74AFD0120011C03ACFFF737FD4E487B
:100B9000FFF792FD201CFFF73FFE4C4B4C491868B5
:100BA00000F07EFA013806AE00256323211C208068
:100BB0004548636025816580FFF7F2FD301C012404
:100BC000FFF782FE311C60233F4833807480B4609D
:100BD000FFF748FE3C48211CFFF727FE211C3A483E
:100BE000FFF730FE3B48FFF7BDFB3B4B80221193E4
:100BF0003A4BD200129380231693A34017932023DD
:100C0000199380239B010227324811A91A93189245
:100C10001395149715951B95FFF7F8FB2D48211C8C
:100C2000FFF712FC2748391CFFF747FB221C294815
:100C3000391CFFF717FC0BAE211C2248FFF732FBD3
:100C4000301CFFF7FDFA8023DB00B3601D48402312
:100C5000311CF3600B95357135617561FFF7DAFA78
:100C60001848391C0722FFF7FCFA211C15480722F7
:100C7000FFF7F7FA1348FFF7F9FA1248211CFFF7BC
:100C8000E7FA10481649FFF721FB0028F9D00D4874
:100C9000FFF703FB3023902001A9019300240323D5
:100CA000C0050B714B71CC71FFF7F6FB6A46092347
:100CB00013706846012354709370FFF743FC1DB016
:100CC000F0BDC04600240140002C01401800002067
:100CD00040420F0008000240402401403E00002036
:100CE0000100000138B5FFF73FFEFFF7BBFE802093
:100CF00000030121FFF782FC02200121FFF79AFC8B
:100D0000802001210001FFF787FC0F4C0F4D201CB4
:100D1000FFF702FCC0239B00236001232371002303
:100D2000281CA371E371211C03236371FFF7B4FB3B
:100D30008021281C8900FFF701FC8021281C490024
:100D4000FFF7FEFB38BDC0465000002000080048F9
:100D5000F8B5FFF709FE194CFFF784FE18492C235C
:100D6000FF3300260B80201C09234B604E808E72BF
:100D7000FFF716FD201C0121FFF757FD01210A1C7A
:100D8000201CFFF7ABFDC425201C0E4CAD0020211C
:100D9000FFF7BFFD6359FF27BB43635180230A4818
:100DA0005B02236010230370012346708370FFF7FA
:100DB000C9FB6359BB436351F8BDC0460004004002
:100DC0004400002000E100E06B0000200000000073
:100DD000F8B539480121FFF78CFD012860D1374B68
:100DE0001B68002B23D0802135484900FFF7A0FB6A
:100DF000002805D0802132484900FFF7A1FB04E01C
:100E000080212F484900FFF799FB80212C48890059
:100E1000FFF78EFB002805D0802129488900FFF7C5
:100E20008FFB04E0802126488900FFF787FB254BD4
:100E30001B68002B30D0244A244E17883368244A7C
:100E4000F918914202D9234A9B183360224B188823
:100E500001F00AFC154B144A00F0E6FA144A154B4F
:100E600000F00AFE3368041CFF181C4B7F00F85A80
:100E70000D1C01F0F9FB021C0B1C201C291C00F0AE
:100E8000FBFD00F0F9F981B20020FFF75BFA144B8B
:100E900032681B689B18336007480121FFF735FD56
:100EA000F8BDC046C046C0460000000000FEAF408E
:100EB000CDCCCCCCCCCCEC3F0004004030000020AA
:100EC000000800481C0000202A00002038000020F4
:100ED000FF03000000FCFFFF2C000020442B000853
:100EE00024000020C046C04608B50420FFF7C4FA1D
:100EF000002802D00420FFF7C9FA0220FFF7BCFA4D
:100F0000002806D00220FFF7C1FA044B1A88044BD0
:100F10001A80044B00221A8008BDC0463E00002003
:100F20003C0000202A000020F7B5FFF7DCFDFFF7AA
:100F3000D9FE514B1B68002B01D0FFF7E9FD4F4B49
:100F40001B68002B01D0FFF713FEFFF701FF4C4F8A
:100F50004C4B4D4D1F802B880A20584301F084FBD9
:100F6000444B434A00F060FA01F0BCFB474CFE21C1
:100F70002060890500F056F9002809D080214448F6
:100F80004900FFF7DDFA802141488900FFF7D8FAD0
:100F900026688021301CC90500F044F9002810D0D3
:100FA000FE21301C890500F05BF9002809D0802162
:100FB00037484900FFF7C4FA802135488900FFF718
:100FC000BDFA26683349301C00F02CF9002810D0F7
:100FD0008021301CC90500F043F9002809D0802188
:100FE0002B484900FFF7AAFA802129488900FFF71A
:100FF000A7FA26688121301CC90500F013F90028E2
:101000000FD0301C234900F02BF9002809D0802193
:101010001F484900FFF792FA80211D488900FFF719
:101020008DFA24681C49201C00F0FCF8002810D020
:101030008121201CC90500F013F9002809D0802166
:1010400013484900FFF77AFA802111488900FFF719
:1010500075FA80239B00288800210093084A0A2300
:10106000FFF736FD0D4B186072E7C046C046C0461C
:101070000000000000FEAF401C0000202000002007
:10108000FF0F00002C0000203C0000203400002056
:1010900000080048000040400000A040240000205C
:1010A000002934D00123002210B488422CD301241B
:1010B0002407A14204D2814202D209011B01F8E7B0
:1010C000E400A14204D2814202D249005B00F8E769
:1010D000884201D3401A1A434C08A04202D3001B95
:1010E0005C0822438C08A04202D3001B9C082243C8
:1010F000CC08A04202D3001BDC082243002803D006
:101100001B0901D00909E3E7101C10BC7047002837
:1011100001D00020C04307B4024802A14018029049
:1011200003BDC046D90000000029F0D003B5FFF789
:10113000B9FF0EBC4243891A1847C046002941D066
:1011400010B4041C4C40A44601230022002900D501
:101150004942002800D5404288422CD3012424076C
:10116000A14204D2814202D209011B01F8E7E40046
:10117000A14204D2814202D249005B00F8E78842D2
:1011800001D3401A1A434C08A04202D3001B5C084A
:1011900022438C08A04202D3001B9C082243CC08A7
:1011A000A04202D3001BDC082243002803D01B0905
:1011B00001D00909E3E7101C6446002C00D5404229
:1011C00010BC7047002806D003DB0020C043400855
:1011D00001E08020000607B4024802A140180290F6
:1011E00003BDC046190000000029EBD003B5FFF78E
:1011F000A7FF0EBC4243891A1847C0467047C04635
:101200008446081C6146FFE71FB500F0C5F80028BA
:1012100001D40021C8421FBD10B500F04DF8404276
:10122000013010BD10B500F0B7F8002801DB002038
:1012300010BD012010BDC04610B500F0ADF800286B
:1012400001DD002010BD012010BDC04610B500F02A
:101250005BF8002801DC002010BD012010BDC04655
:1012600010B500F051F8002801DA002010BD01206F
:1012700010BDC0460000000038B50E4B0C4A041CDF
:101280000D1C01F0EFFA002804D1201C291C01F0EC
:10129000B7F938BD074B064A201C291C00F07AFE1E
:1012A00001F0AEF980231B06C018F2E7C046C04625
:1012B000000000000000E0414A02430270B55C0AF1
:1012C000550A43004A001B0EC60F120EC90FFF2B12
:1012D00005D0FF2A08D0012093420BD070BD012019
:1012E000002CFBD1FF2AF6D10120002DF6D10120E0
:1012F0009342F3D1AC42F1D18E4203D0002BEDD119
:10130000002CEBD10020E9E74A024302F0B55C0A69
:10131000550A43004A001B0EC60F120EC90FFF2BC1
:1013200026D0FF2A29D0002B0CD160426041844690
:10133000002A0AD0002816D18E4221D0002E14D1C6
:10134000012014E0002AF7D194466F426F416046B5
:10135000002805D1002FEFD00120002E07D004E097
:101360000020002F03D10029EAD101204042F0BD26
:10137000002CD6D002204042F9E7002DD3D0F9E767
:101380009342DBDC04DBAC42D8D80020AC42EED286
:10139000002EEAD00120EAE74A024302F0B55C0AD7
:1013A000550A43004A001B0EC60F120EC90FFF2B31
:1013B00026D0FF2A28D0002B0FD0002A14D1944623
:1013C0006F426F416046002814D00020002F03D1E7
:1013D00000290DD101204042F0BD604260418446A9
:1013E000002AEDD00028F3D18E4211D0002EF1D189
:1013F0000120F1E7002FF7D00120002EECD0E9E723
:101400000220002CE8D1D4E70220002DE4D1D2E75D
:101410009342EBDC04DBAC42E8D80020AC42DBD2E8
:10142000002ED7D00120D7E7F0B5564644465F4698
:101430004D46F0B41F1C0B031B0B98464B0087B0A6
:10144000041C81465B0DC80F161C9A460090002BA9
:1014500051D06B4B9A4531D08022414652030A430A
:10146000630FD2001A43674B90460025E200914675
:101470009A44002402953B031B0B9B46FD0F7B0007
:10148000311C5B0D019560D05D4A934254D08021A0
:10149000584649030143720FC9001143594A8B460C
:1014A0009B18F1000020009A04436A4003920F2C1D
:1014B00000D9B1E0544EA4003459A7464046044335
:1014C0006ED1002102250824884689460295D2E77C
:1014D000009C0298C34649460194022864D0032820
:1014E00000D1AFE2012800D03CE2019A0024024082
:1014F0000025A14660E0434623434AD040460028E9
:1015000000D1C4E101F0B8F9031E272B00DDB7E1DB
:1015100028210D1A211C083B4246E9409A400D1C27
:101520001543221C9A40A8469146384B00251B1AA9
:101530009A46002402959EE75A4616430320002E41
:10154000B1D1B34600210220ADE75A4632431BD049
:101550005B46002B00D18EE1584601F08DF927281B
:1015600000DD81E12822171A011C321C08395B4674
:10157000FA408B40171C1F43331C8B40BB46191C81
:10158000224B1B1A00208EE70027BB4600210120BA
:1015900089E70020012504248046814602956AE7F8
:1015A00003250C24029566E7019E0396039F012202
:1015B0000024134D3A40A146002000212403260BAD
:1015C0000C0D2405124B34432D0523402B435B00A7
:1015D0005B08D207191C4846114307B03CBC904633
:1015E0009946A246AB46F0BD01235B420022094C5E
:1015F0009946034DE0E700240025A146DCE7C046FC
:10160000FF07000001FCFFFF443300080DFCFFFF53
:10161000FFFF0F80FFFF0F005546ED1A0495D845D8
:1016200000D953E100D14EE1049C0025013C4E4617
:1016300004944746A946584603020C0E1C4309026F
:10164000250C23041B0C0091381C291C0193FFF767
:1016500027FD019983464143381C8A46291CFFF720
:1016600063FD330C090419438A450CD95B460919FB
:10167000013B8C4200D947E18A4500D844E102226F
:101680005242934409195346CB1A181C291C9846F8
:10169000FFF706FD071C0198291C78438246404647
:1016A000FFF742FD36040B04360C33439A4509D943
:1016B0001B197A1E9C4200D924E19A4500D821E1E9
:1016C000023F1B195E4632041743380CBB46009E8E
:1016D000009F51463F0C32045B1A5946BA46120C21
:1016E0000F043F0C904651467A434F4341464143D5
:1016F00056467043CF19160CBE19B14202D9802745
:101700007F02C019310C12043604120C4018B618AE
:10171000834200D2C4E000D1BEE0191A4846861BBD
:10172000B145BF417F42CF1BA74200D113E1291C25
:10173000381CFFF7B5FC019902904143381C8946DB
:10174000291CFFF7F1FC330C0904194389450CD916
:10175000029B0919013B8C4200D9FFE0894500D862
:10176000FCE0029F0919023F02974F46CF1B381C2D
:10177000291C0597FFF794FC071C0198291C784346
:1017800081460598FFF7D0FC36040904360C0E4359
:10179000B14509D936197B1EB44200D9E0E0B14504
:1017A00000D8DDE0023F3619029D4946761A290429
:1017B00039430B0457460A0C1B0C40464546584318
:1017C00055437B437A43EB18070CDB199D4202D942
:1017D00080256D0252191D0C00041B04000C5219C7
:1017E0001B18964235D300D1FCE001231943049E17
:1017F000994FF519002D00DCA1E0480709D00F230F
:101800000B40042B05D00B1D8B42894149428B4470
:10181000191C5A46D20107D5904B5C46049E80277E
:101820001C40FF00A346F5198D4B9D427ADD039CB9
:101830000122224000248B4DA146BDE680242403D2
:10184000474627424CD13C432403240B009A854D44
:10185000B2E63619481EB4425ED9011C9642C4D184
:10186000009E9E42C1D1C2E7031C283B311C994017
:101870008B46002184E6301C00F0FEFF20306EE62F
:10188000283B211C99400022884691464DE6201CA9
:1018900000F0F2FF203037E60021B14500D33DE7EC
:1018A000009F5A46B944B945BF417F423F19FB18D2
:1018B000013A9C421ED2984200D97EE000D1B5E0A8
:1018C000191A93462AE7894500D8ADE648464646A8
:1018D00042467708D3074608C0071E438146AAE65A
:1018E0005846204212D1044324032A1C240B894663
:1018F0005C4D61E6A342E3D1009F4F45DBD9211A3D
:1019000093460BE7171CDDE69B46BCE63C432403ED
:10191000240B009A534D4FE6B24259D800D18AE0C9
:10192000011C62E75E46C9087307039F0B437402FC
:101930006D0501229946240B6D0D3A403CE64A4B59
:10194000049C1B1B382B10DD039D012200242A4020
:10195000A146002530E60121494248E7029304E709
:101960001F1C21E7019C039441E71F2B40DC049ED0
:101970003E4F0C1CF21958469140DC4090402043E9
:101980000A1C511E8A41011C5846D8401143031CB1
:10199000480709D00F220A40042A05D00A1D8A42AE
:1019A000894149425B18111C1A0234D5039C01225B
:1019B000224000240125A146FEE5009F0221494264
:1019C000B9448B44B945894149420919CB18A4E669
:1019D000009D881E6900A942AD416D422C1936193F
:1019E00000913AE7002B00D033E70024009437E75A
:1019F0001F4A049C5D46121BD5402A1C202B1FD079
:101A00001C4E5F46A3199F403B1C19434B1E994136
:101A100011430023BCE75A07C9080A43039D9146B6
:101A20005B0201222A401C0B0025C5E54E45C4D8A7
:101A30009346002172E6009F9F42C9D3011C0FE725
:101A40000023E2E780242403584604432403240BA4
:101A5000019A8946034DAFE5FF030000FFFFFFFE3B
:101A6000FE070000FF07000002FCFFFF1E0400004D
:101A7000E2FBFFFF3E040000F0B5564644465F46D9
:101A80004D46F0B41F1C0B031B0B9A464B0087B04E
:101A9000041C80465B0DC80F161C02938146002B68
:101AA00068D0694B0299994232D080225346520342
:101AB0001A43D200630F1A439246644AE000891821
:101AC00080460291002400253B031B0B7800F90F90
:101AD000321C9B46400D039100D175E05A4B984251
:101AE00069D080225B4652031A43D200730F1A4317
:101AF0009346F200554E0023801903994E467140DB
:101B00001C430F2C00D9ABE0514EA4003459A7461A
:101B100053461C4300D086E00025AA46A846082468
:101B20000225D1E74946022D6BD0032D00D115E2E5
:101B3000012D00D056E10D40EDB20024A94600234E
:101B4000A0460020002125030A0D1C052D0B1205BF
:101B5000404B2A43134023435B004C465B08E2079B
:101B6000191C4046114307B03CBC90469946A2461A
:101B7000AB46F0BD534623434FD05346002B00D114
:101B800082E1504600F078FE031E272B00DD74E151
:101B900028210D1A211C083B5246E9409A400D1C91
:101BA0001543221C9A40AA4690462B4B00241B1A30
:101BB0000293002588E75B461E430323002E9CD139
:101BC000B3460022022398E7334321D05846002829
:101BD00000D14DE100F050FE272800DD41E1282131
:101BE0000F1A021C311C083A5B46F94093400F1C47
:101BF0001F43331C9340BB461A1C174B181A002373
:101C00007BE701230B4000249946A0460E4B98E742
:101C10000027BB46002201236FE7002004248246F0
:101C20008046012550E70C2403254DE701235B4244
:101C300000259846A946094C034B82E7DA469046B0
:101C400003991D1C6FE7C046FF07000001FCFFFF62
:101C500084330008FFFF0F800DFCFFFFFFFF0F0024
:101C6000029F160C381804904046070C0004000C24
:101C70001204120C031C5343041C3D1C74435543B3
:101C800098463B1C73436419A44644460293230CB4
:101C900063449D4204D9029D802464022D1902955B
:101CA0001D0C039545462C041B04240C1C1905949B
:101CB0005C46230C051C58432404240C8446381C21
:101CC000604365435F438146CC44280C6044BB4677
:101CD000814502D980277F02BB442D04070C2D0CBF
:101CE000000440195546BC462F04E3448446280CA2
:101CF0003D0C2F1C5743B8462F1C77434243B9462F
:101D000047463F0C9144BA46D14446434A4502D91E
:101D100080225202B6184F463A0CB6183A0447468B
:101D20003F043F0CB8462F1C67435D434443584370
:101D300065190190380C2D184244B846AC4204D9BC
:101D4000019880235B02C01801900398029C6044B4
:101D500000196045A44143466442A4462F041C0474
:101D60008018B946240C4C44904292415C44524243
:101D7000A04691466444A24632194F46D419E24522
:101D80009B41D845BF415B427F421F432D0C7F19C9
:101D9000B24292414C45AD4152426D421543019EC3
:101DA0007D19AB19E20D5B02059F134342023A43D2
:101DB0009A46531E9A41C30D101C184364022043D7
:101DC00080465046C0010DD5454601225646049C2A
:101DD0006B082A401A43F30701341A437608049427
:101DE0009046B246049F63483B18002B61DD424693
:101DF00052070BD00F2244462240042A06D0424606
:101E00000432424580414042824490465546ED01AD
:101E100007D5594B5646049F80201E40C000B2464D
:101E20003B18564A934200DDEBE644465546E2082D
:101E30006807104301226C025B050A408046240BB0
:101E40005B0D91467DE6DA4690461D1C6BE68024CC
:101E50002403574627421CD13C432403240B484B00
:101E60006FE6031C283B311C99408B460022C4E6D8
:101E7000301C00F001FD2030AEE6283B211C9940CB
:101E800000228A46904690E6201C00F0F5FC2030A7
:101E90007AE65846204207D10443039D2403240BCD
:101EA000A9469046364B4CE63C432403240B344B66
:101EB00047E6344B049E9B1B382B06DD01230B4069
:101EC00000249946A04600233BE61F2B25DC2E4A22
:101ED000049F4446B8185246DC40824022434446A0
:101EE0008440201C5546441EA041DD4002432B1C6B
:101EF000560709D00F201040042805D0101D90422D
:101F0000924152429B18021C1F021AD501230B401A
:101F100000249946A046012313E61C48049E574618
:101F2000801BC740381C202B16D0194B5446F21882
:101F30009440221C45462A43531E9A4102430023E3
:101F4000D6E758075B02D2081C0B01230B40104355
:101F5000994680460023F4E50022EBE78024240321
:101F600050460123044319402403240B8946044BA3
:101F7000E7E5C046FF030000FFFFFFFEFE0700008D
:101F8000FF07000002FCFFFF1E040000E2FBFFFF52
:101F90003E040000F8B55F46564644464D46F0B450
:101FA0000C034D00CF0F610A440F2143C4001803F6
:101FB000DE0F8046B44646465800760A530F334338
:101FC000D600D14A6D0DBA46400DB346904200D1BD
:101FD000F5E06246012672409446674500D1ABE0C9
:101FE0002F1A002F00DC11E100283ED1584618437B
:101FF00000D0F1E0600700D197E00F232340042BCD
:1020000000D122E1221DA242A44164428023091989
:102010001B04012750460B400740141C002B00D125
:1020200079E0B94B01359D4200D10BE1B74BE40893
:1020300019404807490204430B0B002000211B03F1
:102040001A0B0B0D6D051B0513436A08B04DFF07F6
:102050001D4015436D006D08291C3943201C3CBCF4
:1020600090469946A246AB46F8BDA7488542C1D0E6
:10207000802000040343382F00DDFDE01F2F00DD2A
:1020800031E12020C01B1A1C5E468240FE403243D4
:1020900094465A468240101C421E9041FB406246C4
:1020A00002431F1CA21A9442A4416442C91B091B8B
:1020B000141C0A029ED549024F0A002F00D1D6E017
:1020C000381C00F0D9FB021C083A1F2A00DDC3E0CF
:1020D0002821231C091A9740CB401F439440954266
:1020E00000DDC0E0551B691C1F2900DDEAE01F224E
:1020F000551B3B1C221CAB40CA40AC40651EAC418A
:102100001343CF401C43391C002573E70824814941
:102110007D4D002764427C4B4807E4080443C9080E
:102120009D4250D009030B0B87E780231B04012736
:1021300052460B40174071E72E1AB446002E00DCC1
:10214000A1E0002854D07048854200D152E7802099
:10215000000403436046382800DD10E11F2800DD3D
:1021600059E162462020801A1E1C8640B1465E4618
:10217000D6404A4632435E4686409046301C421E58
:102180009041424602436046C3401219A242A44114
:10219000644259180919141C0E0200D42AE75A4B3C
:1021A00001359D4200D133E1584B600819400123AD
:1021B00023401C1C0443CB071C4349081AE71E4359
:1021C00000D00AE705E7231C0B433BD080231B0309
:1021D0000B431B031B0B30E7013F002F6DD158460B
:1021E000221A9442A4416442C91A091B141C60E7D4
:1021F0005846184300D1FDE601204042844462461F
:10220000002A00D0D2E05E463219BFE7002F00D08E
:1022100082E0681C4005400D012800DCEAE05A46D7
:10222000A21A9442BF41C81A7F42C71B3E0200D483
:102230009AE05846041BA3459241591A52428F1AFC
:10224000E2463AE700230024F7E680231B04012737
:1022500056460B403740E1E6271C283887400024CB
:10226000954200DC3EE72949AD1A3940C2E6201C00
:1022700000F002FB203026E75A461A43531E9A41CB
:10228000D2B200270EE7002E00D0E0E0681C420525
:10229000520D012A00DC92E01B4DA84200D1F7E06C
:1022A0005D462A19A242A441644259180919CC0773
:1022B000520814434908051C9CE61348854200D087
:1022C000D9E697E62B1C1F3B3E1CDE40331C202921
:1022D00071D03F22551BAF403C43601E84411C43DC
:1022E0000021002586E6381C20381E1CC640301C04
:1022F000202F62D04022D71BBB405A461A43531EA0
:102300009A4102430027CDE6FF070000FFFF7FFF51
:10231000FFFF0F80FFFF7F00002D37D0B64DA84292
:1023200000D18FE080252D047F422943382F00DD26
:10233000A8E01F2F00DD25E12025ED1B0E1CAE407F
:10234000B046261CFE404246AC401643651EAC41DA
:102350003443F9405A46141BA34592415B1A52423A
:10236000991A051CE246A4E6131C3B43141C002BDF
:1023700000D0A2E60027002100240025CBE65A4623
:102380001A43531E9A41D2B20023FEE60D1C254388
:1023900058D0FF43002F51D15D462C1BA3459241DD
:1023A000591A5242891A051CE24682E69248854231
:1023B00000D0CFE61EE600278EE700239DE7081C2D
:1023C0002043002D00D0C3E0002800D1F0E05846A3
:1023D000184300D10EE65E463219A242A44164427F
:1023E00059180919141C080200D403E6834B01256F
:1023F0001940FFE5081C2043002D38D1002870D17A
:102400005946194303D0191C5C46E246F2E5002701
:10241000002100247FE6604620381A1CC240664630
:10242000101C202E00D1ABE04022921B93405A4654
:102430001A43531E9A4102430023A6E66E4DA8425A
:1024400000D073E7191C5C46051CE246D2E5002D5E
:1024500022D10D1C254377D0F543002D71D15C446A
:102460005C459241591852428918051C94E600288F
:102470004DD15946194300D148E6191C5C46E24645
:102480005D4DB7E50C43611E8C41E4B2002161E76C
:10249000051C002100243EE6574DA84254D0664654
:1024A0008022754216043143382D7BDC1F2D00DD60
:1024B0008CE02022561B0A1CB446B240261CEE407B
:1024C0003243904662469440661EB44142461443ED
:1024D000E9405C445C459241CB1852429918051C76
:1024E0005AE65846184300D184E55E46A71BBC4215
:1024F0009241C81A5242801A060260D55846041BFF
:10250000A3459241591A5242891AE24672E5584649
:10251000184333D04807E40804438020C908000367
:10252000014208D0DD08054205D15946CA085C07BA
:102530001443291CE246630FC9001943E4002E4DE1
:1025400058E52D4A9042AFD1191C5C46051C51E557
:10255000002830D05846184310D080254807E4089A
:10256000C9082D0304432942E5D0D8082842E2D106
:102570005946CA085C071443011CDCE71E4D39E5C7
:10258000002354E73D1C203D0E1CEE40351C202F3F
:102590002ED04026F71BB9400C43611E8C412C43C2
:1025A0000021D7E60C43611E8C41E4B2002190E784
:1025B000191C5C461EE5191C5C460F4D1AE5031CF0
:1025C0003B4300D123E7011C3C1C13E52026764247
:1025D00076190A1CF2409046202D0BD04026751B20
:1025E000A9400C43611E8C4141460C43002170E719
:1025F0000021D1E70021F4E7FF070000FFFF7FFF84
:1026000070B50B1C124C09030E0B5900021C490D2E
:10261000DD0F0020A14211DD0E4881420FDC802039
:10262000400306430C48401A1F280BDD0B4A521A80
:10263000D640321C5042002D00D1101C70BD084BFA
:10264000E818FBE7074BC240C9188E403243F1E758
:10265000FE0300001D04000033040000130400000A
:10266000FFFFFF7FEDFBFFFFF8B5041E31D0C70F62
:1026700000D04442201C00F0FFF8184D2D1A0A2803
:1026800019DD0B38844024036D05240B6D0D3A1CB5
:102690000026002000210B0D2403240B1B052343DF
:1026A0000F4C2D051C402C4364006408D307211CEB
:1026B000301C1943F8BD061C1536231CB3401E1CE4
:1026C0000B23181AC44024036D05240B6D0D3A1C0E
:1026D000DFE70022002500240026DAE71E040000C0
:1026E000FFFF0F80F0B54B000D03420F5B0D6D0A2D
:1026F00015435A1C5205CC0FC600520D012A27DD86
:10270000394FDA19FE2A1ADC002A35DD8001ED0086
:10271000431E98412843760F3043430704D00F23CC
:102720000340042B00D004308021C904014027D08D
:102730000132FF2A1DD083015B0AD1B201E0FF21E3
:1027400000235802C905400AE40708432043F0BDAE
:10275000002B06D1354311D10021002043025B0A32
:10276000EFE72E43EBD08020ED0080042843FF22CA
:10277000D3E7FF210023E4E717320DDA052000221A
:10278000C008D1B2FF2AE9D10028D9D08023DB03C9
:1027900003435B025B0AD4E7802214491204154309
:1027A000C91A1F290DDC124A371C9B18281C9F4090
:1027B00098403B1C5A1E93411843CE4030430022A0
:1027C000ABE70C4F2A1CFF1AFA40171C202909D02E
:1027D000094A98188540281C3043461EB0413843AA
:1027E00000229AE70020F7E780FCFFFF9E0300002D
:1027F00082FCFFFF7E030000A2FCFFFF8446101C4A
:1028000062468C46191C634600E0C0461FB500F0C6
:1028100015F9002801D40021C8421FBD10B500F0F1
:1028200049F84042013010BD10B500F007F900280A
:1028300001DB002010BD012010BDC04610B500F026
:10284000FDF8002801DD002010BD012010BDC046AC
:1028500010B500F079F8002801DC002010BD01203F
:1028600010BDC04610B500F06FF8002801DA002056
:1028700010BD012010BDC0461C2101231B0498423D
:1028800001D3000C10391B0A984201D3000A083901
:102890001B09984201D30009043902A2105C4018B8
:1028A0007047C0460403020201010101000000005C
:1028B00000000000F0B55F4656464D464446F0B471
:1028C0000D1C041C8046E80F814618030F03000B03
:1028D0003F0B83B084461B48009749005E00DF0F22
:1028E000490D9246760DBB4681420CD01548864272
:1028F00010D00120B14215D003B03CBC904699469F
:10290000A246AB46F0BD009F01202743F4D10D48FD
:102910008642EED1604602430120002AECD101201C
:10292000B142E9D1009B6345E6D1D045E4D1D94518
:1029300006D00029E0D11C43201C441EA041DBE747
:102940000020D9E7FF070000F0B55F4656464D4628
:102950004446F0B4CD0FDE0FAC461D032D0BB1463F
:10296000354E0F034C00AB465D0080463F0B640DB7
:1029700092466D0DB44231D02F4EB54234D0002C6A
:102980000ED1384341424141081C002D0BD0002993
:1029900019D1CC452CD06646002E17D1012017E066
:1029A000002DF6D1281C59460A43534253410028B2
:1029B00006D1002BEDD065460120002D08D005E0A2
:1029C0000020002B04D14B46002BE7D101204042D0
:1029D0003CBC90469946A246AB46F0BD3E1C064321
:1029E000CAD002204042F3E75E461643C7D0F8E75C
:1029F000AC4205DC09DA6346002BE7D00120E7E7AB
:102A000061460029E2D10120E2E75F4508D80CD0F9
:102A100000205F45DCD26646002ED7D00120D7E7E4
:102A20006546002DD2D10120D2E7D045F8D800204C
:102A3000D045F0D3CCE7C046FF070000F0B55646BE
:102A40004D4644465F46F0B40D1C83B0041C019013
:102A5000E80F814618030F03000B3F0B84463848EC
:102A6000009749005E00DF0F490D9246760DB8468B
:102A7000814233D03248864235D0002917D0002E0B
:102A80001ED1341C67463A4353425341002C1ED09A
:102A90000020002B04D14046002816D101204042DE
:102AA00003B03CBC90469946A246AB46F0BD0098A8
:102AB000044360426041041C002EE3D00028EAD1A8
:102AC000C14515D04F46002FE8D10120E8E7002B83
:102AD000F6D04B460120002BE2D0DFE7009F02201A
:102AE0002743DDD1C6E7674602201743D8D1C4E7A4
:102AF000B14204DD48460028D0D10120D0E7B142E0
:102B000004DA4B46002BC9D00120C9E7009F674576
:102B100009D80DD0009F00206745C1D24F46002F35
:102B2000BCD00120BCE74B46002BB7D10120B7E752
:102B300001985045F7D8019B00205345EED3AFE7ED
:102B4000FF07000000080D081908260832083F0892
:102B50004B085808640871087E088A089708A3087B
:102B6000B008BC08C908D508E208EE08FB08070948
:102B7000140920092D093909450952095E096B0913
:102B80007709830990099C09A809B409C109CD09ED
:102B9000D909E509F209FE090A0A160A220A2E0ACB
:102BA0003A0A460A530A5F0A6B0A760A820A8E0AB2
:102BB0009A0AA60AB20ABE0ACA0AD50AE10AED0AA8
:102BC000F80A040B100B1B0B270B320B3E0B490BA7
:102BD000550B600B6C0B770B820B8E0B990BA40BB8
:102BE000AF0BBA0BC50BD00BDC0BE70BF10BFC0BDF
:102BF000070C120C1D0C280C320C3D0C480C520C0E
:102C00005D0C670C720C7C0C870C910C9B0CA60C59
:102C1000B00CBA0CC40CCE0CD80CE20CEC0CF60CBC
:102C2000000D090D130D1D0D270D300D3A0D430D2F
:102C30004D0D560D5F0D690D720D7B0D840D8D0DC3
:102C4000960D9F0DA80DB10DBA0DC30DCB0DD40D72
:102C5000DC0DE50DED0DF60DFE0D070E0F0E170E3A
:102C60001F0E270E2F0E370E3F0E470E4F0E560E1D
:102C70005E0E650E6D0E740E7C0E830E8A0E920E25
:102C8000990EA00EA70EAE0EB50EBC0EC20EC90E4A
:102C9000D00ED60EDD0EE30EE90EF00EF60EFC0E93
:102CA000020F080F0E0F140F1A0F200F250F2B0FF6
:102CB000300F360F3B0F410F460F4B0F500F550F84
:102CC0005A0F5F0F640F690F6E0F720F770F7B0F34
:102CD000800F840F880F8C0F910F950F990F9D0F08
:102CE000A00FA40FA80FAB0FAF0FB20FB60FB90F05
:102CF000BC0FC00FC30FC60FC90FCB0FCE0FD10F24
:102D0000D40FD60FD90FDB0FDD0FE00FE20FE40F6A
:102D1000E60FE80FEA0FEC0FED0FEF0FF10FF20FD8
:102D2000F40FF50FF60FF70FF80FF90FFA0FFB0F6F
:102D3000FC0FFD0FFE0FFE0FFF0FFF0FFF0F001028
:102D4000001000100010001000100010FF0FFF0F07
:102D5000FF0FFE0FFE0FFD0FFC0FFB0FFA0FF90F19
:102D6000F80FF70FF60FF50FF40FF20FF10FEF0F4B
:102D7000ED0FEC0FEA0FE80FE60FE40FE20FE00FA4
:102D8000DD0FDB0FD90FD60FD40FD10FCE0FCB0F26
:102D9000C90FC60FC30FC00FBC0FB90FB60FB20FCC
:102DA000AF0FAB0FA80FA40FA00F9D0F990F950F9A
:102DB000910F8C0F880F840F800F7B0F770F720F8E
:102DC0006E0F690F640F5F0F5A0F550F500F4B0FA7
:102DD000460F410F3B0F360F300F2B0F250F200FE3
:102DE0001A0F140F0E0F080F020FFC0EF60EF00E46
:102DF000E90EE30EDD0ED60ED00EC90EC20EBC0ECD
:102E0000B50EAE0EA70EA00E990E920E8A0E830E70
:102E10007C0E740E6D0E650E5E0E560E4F0E470E36
:102E20003F0E370E2F0E270E1F0E170E0F0E070E1A
:102E3000FE0DF60DED0DE50DDC0DD40DCB0DC30D26
:102E4000BA0DB10DA80D9F0D960D8D0D840D7B0D46
:102E5000720D690D5F0D560D4D0D430D3A0D300D80
:102E6000270D1D0D130D090D000DF60CEC0CE20CD9
:102E7000D80CCE0CC40CBA0CB00CA60C9B0C910C4C
:102E8000870C7C0C720C670C5D0C520C480C3D0CD2
:102E9000320C280C1D0C120C070CFC0BF10BE70B71
:102EA000DC0BD00BC50BBA0BAF0BA40B990B8E0B25
:102EB000820B770B6C0B600B550B490B3E0B320BE7
:102EC000270B1B0B100B040BF80AED0AE10AD50ABD
:102ED000CA0ABE0AB20AA60A9A0A8E0A820A760AA2
:102EE0006B0A5F0A530A460A3A0A2E0A220A160A8F
:102EF0000A0AFE09F209E509D909CD09C109B4098F
:102F0000A8099C099009830977096B095E09520990
:102F1000450939092D09200914090709FB08EE089C
:102F2000E208D508C908BC08B008A30897088A08B1
:102F30007E087108640858084B083F0832082608C4
:102F400019080D080008F307E707DA07CE07C107DD
:102F5000B507A8079C078F078207760769075D07F3
:102F60005007440737072B071E0712070507F90606
:102F7000EC06E006D306C706BB06AE06A20695061B
:102F800089067D067006640658064C063F06330621
:102F900027061B060E060206F605EA05DE05D20523
:102FA000C605BA05AD05A10595058A057E0572051C
:102FB00066055A054E05420536052B051F05130506
:102FC0000805FC04F004E504D904CE04C204B704E7
:102FD000AB04A004940489047E04720467045C04B6
:102FE000510446043B043004240419040F0404046F
:102FF000F903EE03E303D803CE03C303B803AE0320
:10300000A30399038E03840379036F0365035A03B3
:10301000500346033C03320328031E0314030A0330
:103020000003F702ED02E302D902D002C602BD029C
:10303000B302AA02A10297028E0285027C027302E9
:103040006A02610258024F0246023D0235022C021A
:1030500024021B0213020A020202F901F101E90132
:10306000E101D901D101C901C101B901B101AA012F
:10307000A2019B0193018C0184017D0176016E0107
:1030800067016001590152014B0144013E013701C2
:1030900030012A0123011D01170110010A01040159
:1030A000FE00F800F200EC00E600E000DB00D500D6
:1030B000D000CA00C500BF00BA00B500B000AB0028
:1030C000A600A1009C00970092008E008900850058
:1030D00080007C00780074006F006B006700630064
:1030E00060005C005800550051004E004A00470047
:1030F000440040003D003A003700350032002F0008
:103100002C002A0027002500230020001E001C00A0
:103110001A00180016001400130011000F000E0012
:103120000C000B000A00090008000700060005005B
:103130000400030002000200010001000100000081
:10314000000000000000000000000000010001007D
:103150000100020002000300040005000600070051
:10316000080009000A000B000C000E000F001100FF
:1031700013001400160018001A001C001E00200086
:103180002300250027002A002C002F0032003500E4
:1031900037003A003D004000440047004A004E001E
:1031A0005100550058005C006000630067006B0030
:1031B0006F00740078007C008000850089008E001C
:1031C000920097009C00A100A600AB00B000B500E3
:1031D000BA00BF00C500CA00D000D500DB00E00087
:1031E000E600EC00F200F800FE0004010A01100104
:1031F00017011D0123012A01300137013E0144015D
:103200004B0152015901600167016E0176017D0198
:1032100084018C0193019B01A201AA01B101B901B2
:10322000C101C901D101D901E101E901F101F901AE
:1032300002020A0213021B0224022C0235023D0282
:1032400046024F02580261026A0273027C02850242
:103250008E029702A102AA02B302BD02C602D002E8
:10326000D902E302ED02F70200030A0314031E036E
:10327000280332033C03460350035A0365036F03DC
:10328000790384038E039903A303AE03B803C30336
:10329000CE03D803E303EE03F90304040F04190477
:1032A000240430043B04460451045C0467047204A3
:1032B0007E0489049404A004AB04B704C204CE04C1
:1032C000D904E504F004FC04080513051F052B05CB
:1032D000360542054E055A05660572057E058A05C6
:1032E0009505A105AD05BA05C605D205DE05EA05B9
:1032F000F60502060E061B06270633063F064C0699
:103300005806640670067D0689069506A206AE0676
:10331000BB06C706D306E006EC06F906050712074A
:103320001E072B073707440750075D076907760715
:1033300082078F079C07A807B507C107CE07DA07E2
:10334000E707F30718160008AC150008F615000883
:10335000DA140008F6150008E8150008F61500084C
:10336000DA140008AC150008AC150008E8150008D0
:10337000DA140008D0140008D0140008D014000893
:103380003C180008601C0008461E0008461E000885
:103390003C1C0008261B0008261B00082C1C0008EB
:1033A0003C1C0008261B00082C1C0008261B0008DB
:1033B0003C1C0008241B0008241B0008241B0008D8
:0433C0004E1E000895
:1033C40028000020000000000000000000000000B1
:1033D4000102030406070809006CDC020100000076
:0833E400010000000F000000D1
:04000005080000C52A
:00000001FF
